:100000000C9463000C948B000C948B000C948B006C
:100010000C948B000C948B000C948B000C948B0034
:100020000C948B000C948B000C948B000C948B0024
:100030000C948B000C9486080C948B000C948B0011
:100040000C94B6060C948B000C9426070C940007B5
:100050000C948B000C948B000C948B000C948B00F4
:100060000C9458070C948B0000000000240027001B
:100070002A0000000000250028002B0000000000DE
:1000800023002600290004040404040404040202DA
:100090000202020203030303030301020408102007
:1000A0004080010204081020010204081020000012
:1000B0000008000201000003040700000000000027
:1000C0000000B808E00A11241FBECFEFD8E0DEBF61
:1000D000CDBF25E0A8E9B3E001C01D92AC30B20766
:1000E000E1F713E0A0E0B1E0E8E5FAE102C0059035
:1000F0000D92A839B107D9F710E0C2E6D0E004C0EC
:100100002197FE010E941D0BC136D107C9F70E943D
:1001100056090C941F0D0C940000282F30915804A0
:10012000313208F04AC0809134048111FCCF9091A3
:10013000570442E040933404209333042FEF20937C
:1001400032041092310430933004E7E3F4E0A0E18C
:10015000B4E020E0321721F041914D932F5FFACFA8
:1001600010920F0420910F04990F922B90930F047B
:1001700090910E04913061F410920E0490910F044E
:100180009093BB009091BC0093FDF8CF95EC01C01B
:1001900095EE9093BC00909134049230E1F39091ED
:1001A00032049F3F79F080913204803241F0809197
:1001B0003204803331F084E005C081E003C082E086
:1001C00001C083E010923604109258041092350456
:1001D0000895CF92DF92EF92FF920F931F93CF93E8
:1001E000DF936C017A018B01C0E0D0E0CE15DF0512
:1001F00081F0D8016D918D01D601ED91FC910190B6
:10020000F081E02DC6010995892B11F02196EECFE2
:100210007E01C701DF91CF911F910F91FF90EF9069
:10022000DF90CF90089508950895FC01538D448D7B
:10023000252F30E0842F90E0821B930B541710F091
:10024000CF96089501970895FC01918D828D98179E
:1002500061F0828DDF01A80FB11D5D968C91928DAA
:100260009F5F9F73928F90E008958FEF9FEF0895A7
:10027000FC01918D828D981731F0828DE80FF11D70
:10028000858D90E008958FEF9FEF0895FC01918D8B
:10029000228D892F90E0805C9F4F821B91098F7384
:1002A0009927089589E594E00E94460121E0892B71
:1002B00009F420E0822F0895FC01848DDF01A80F4E
:1002C000B11DA35ABF4F2C91848D90E001968F737E
:1002D0009927848FA689B7892C93A089B1898C919D
:1002E000837080648C93938D848D981306C00288EC
:1002F000F389E02D80818F7D80830895EF92FF92B6
:100300000F931F93CF93DF93EC0181E0888F9B8D38
:100310008C8D981305C0E889F989808185FD26C0F8
:10032000F62E0B8D10E00F5F1F4F0F731127E02E7D
:100330008C8DE8120CC00FB607FCFACFE889F9895A
:10034000808185FFF5CFCE010E945C01F1CF8B8DBE
:10035000FE01E80FF11DE35AFF4FF0829FB7F894BA
:100360000B8FEA89FB89808180620AC09FB7F8946D
:10037000EE89FF896083E889F989808183708064D0
:1003800080839FBF81E090E0DF91CF911F910F911B
:10039000FF90EF900895CF93DF93EC01888D882331
:1003A000C9F0EA89FB89808185FD05C0A889B989E2
:1003B0008C9186FD0FC00FB607FCF5CF808185FFBD
:1003C000F2CFA889B9898C9185FFEDCFCE010E942B
:1003D0005C01E7CFDF91CF91089580E090E0892B19
:1003E00029F00E94520181110C940000089583307D
:1003F00081F028F4813099F08230A1F0089587309F
:10040000A9F08830B9F08430D1F4809180008F7DDC
:1004100003C0809180008F7780938000089584B519
:100420008F7702C084B58F7D84BD08958091B00020
:100430008F7703C08091B0008F7D8093B0000895C6
:10044000CF93DF93282F30E0F901E255FF4F8491DD
:10045000F901E656FF4FD491F901EA57FF4FC491D5
:10046000CC2391F081110E94F701EC2FF0E0EE0F08
:10047000FF1FE458FF4FA591B491EC91ED2381E06B
:1004800090E021F480E002C080E090E0DF91CF9125
:1004900008951F93CF93DF93282F30E0F901E255A1
:1004A000FF4F8491F901E656FF4FD491F901EA57C5
:1004B000FF4FC491CC23C1F0162F81110E94F70188
:1004C000EC2FF0E0EE0FFF1FEE58FF4FA591B49117
:1004D0009FB7F894111104C08C91D095D82302C015
:1004E000EC91DE2BDC939FBFDF91CF911F9108959C
:1004F000CF93DF9390E0FC01E656FF4F2491FC017F
:10050000EA57FF4F8491882361F190E0880F991F8B
:10051000FC01E859FF4FC591D491FC01EE58FF4F03
:10052000A591B491611109C09FB7F8948881209575
:1005300082238883EC912E230BC0623061F49FB735
:10054000F8948881322F309583238883EC912E2B69
:100550002C939FBF06C08FB7F894E8812E2B288379
:100560008FBFDF91CF91089585ED8093BC0080917E
:10057000BC0084FDFCCF1092340408954091BA036E
:10058000262F30E0240F311D21323105DCF420917B
:1005900034042430C9F4FC0180E090E0861758F45C
:1005A0003091BA032191DC01A656BC4FA30FB11DB7
:1005B0002C930196F3CF8091BA03680F6093BA032E
:1005C00080E0089581E0089582E008950895E09123
:1005D000EB038091EA03E81730F4F0E0E451FC4FBC
:1005E000808190E008958FEF9FEF08959091EB0345
:1005F0008091EA03981750F4E92FF0E0E451FC4FA2
:10060000208130E09F5F9093EB0302C02FEF3FEF1C
:10061000C90108958091EA0390E02091EB03821BC9
:1006200091090895CF92DF92EF92FF920F931F935B
:10063000CF93DF937C01CB018A01209135042223E3
:1006400089F0EB016B01C40ED51ECC15DD0569F0F8
:100650006991D701ED91FC910190F081E02DC701E6
:100660000995F3CF642F0E94BE02C801DF91CF919C
:100670001F910F91FF90EF90DF90CF900895CF934F
:10068000DF931F92CDB7DEB7698320913504222313
:10069000D1F020915804203240F021E030E0FC01FC
:1006A0003383228380E090E015C080913604E82FE8
:1006B000F0E0E95CFB4F998190838F5F8093360473
:1006C0008093580405C061E0CE0101960E94BE02ED
:1006D00081E090E00F90DF91CF9108950F931F93E9
:1006E000CF93DF938A0121E0209335048096809395
:1006F0005704109236041092580486EF94E00E943A
:100700003F03CCE0D4E0CE018C5094408017910799
:1007100034F4699186EF94E00E943F03F4CF81E0C6
:10072000DF91CF911F910F910C948D00089580E07F
:1007300090E0089561E08DE00E947802F8941092B4
:100740008000E1E8F0E010828EEE95E89093990346
:1007500080939803909385008093840080818460C7
:100760008083EFE6F0E08081816080837894089553
:100770008CE00E94200221E0892B09F020E0822FEA
:1007800008951F93CF93DF93CDB7DEB72D970FB6A4
:10079000F894DEBF0FBECDBF182F86E0E7E1F1E091
:1007A000DE01189601900D928A95E1F787E0EDE160
:1007B000F1E0DE01119601900D928A95E1F70E9419
:1007C000B80390E0882399F080E0E1E0F0E0EC0FDE
:1007D000FD1FE90FF11D20812F3F91F0211301C072
:1007E00081E09F5FF2CF121301C081E09F5FE8E0DC
:1007F000F0E0EC0FFD1FE90FF11D20812F3F99F76D
:100800002D960FB6F894DEBF0FBECDBFDF91CF910E
:100810001F910895CF93DF93EC01A09681E0809320
:100820003504C0935704109236041092580486EF92
:1008300094E00E943F0381E00E948D008091340487
:100840008111FCCF81E080933404809333049FEFC7
:1008500090933204109231041092300480930F046C
:1008600080910F04CC0FC82BC0930F0480910E040D
:10087000813061F410920E0480910F048093BB00CC
:100880008091BC0083FDF8CF85EC01C085EE80939C
:10089000BC00809134048130E1F3809131048111F6
:1008A00003C09091310401C091E0A0E1B4E0ECEE0E
:1008B000F3E080E0891721F02D9121938F5FFACF2B
:1008C0001092EB038093EA0386EF94E00E94F60215
:1008D00080930C04DF91CF910895EF92FF920F93D4
:1008E0001F93CF93DF938C017C0184E0F594E79410
:1008F0008A95E1F703FB882780F9C82F80E0D82F7D
:10090000BE016E5E7F4FC7010E940A0480910C04F5
:1009100090E0EE0CFF1CCE0DDF1D33E0CC0FDD1F91
:100920003A95E1F70C1B1D0B02C0959587950A952A
:10093000E2F781709927DF91CF911F910F91FF907E
:10094000EF900895CF93C82F0E94B8032C2F30E06A
:10095000882349F086E0829FF001839FF00D1124E7
:10096000EE57FC4F08C086E0829FF001839FF00D98
:100970001124EC5DFE4F83818F3F39F08F7790E03B
:100980000E946D0421E0892B09F020E0822FCF9195
:1009900008956F927F928F929F92AF92BF92CF9263
:1009A000DF92EF92FF920F931F93CF93DF9342E872
:1009B000C42E43E0D42E54E2E52E51E0F52EC0E0E3
:1009C000D0E000E010E066246394712C812C912C1F
:1009D000540183940E94B803882311F0F60101C0EA
:1009E000F70183818F3FE1F18F7790E00E946D04E2
:1009F000A1E0009709F4A0E0009709F4612CBE0182
:100A00006F707727FE0124E0F595E7952A95E1F7C9
:100A1000EE0FFF1FE050FF4F20813181B0E0A901B0
:100A2000062E02C0569547950A94E2F74170552765
:100A3000A417B507A9F0711013C08E01892B09F115
:100A4000106AD501C40104C0880F991FAA1FBB1FDB
:100A50006A95D2F7822B932B9183808377247394AA
:100A60002196F6E0CF0ED11C86E0E80EF11CCA35C7
:100A7000D10509F0AFCF6620A9F0772099F0106476
:100A800011C01068D501C40104C0880F991FAA1FA6
:100A9000BB1F6A95D2F7809590952823392331831F
:100AA0002083DCCFC801DF91CF911F910F91FF9080
:100AB000EF90DF90CF90BF90AF909F908F907F90FE
:100AC0006F900895BF92CF92DF92EF92FF920F93B3
:100AD0001F93CF93DF93D82FC62FB42E0E94B80355
:100AE000882349F0CC23D1F086E0D89FF00111246F
:100AF000EE57FC4F0CC08D2F90E026E0289FF001B0
:100B0000299FF00D1124EC5DFE4FCC2311F0C48120
:100B100001C0C581CF3F09F45FC001C0C0E08D2F87
:100B20000E94C103882311F081E0B826C23C78F00E
:100B300061E06B2580E48C0FDF91CF911F910F91C5
:100B4000FF90EF90DF90CF90BF900C9449020C2F54
:100B500010E0780184E0F594E7948A95E1F7C3FB0F
:100B6000CC24C0F8D12CC701880F991F8C0D9D1D76
:100B700033E0880F991F3A95E1F7081B190BE6013E
:100B80006296BE01C7010E940A0440910C04BB207A
:100B900059F021E030E001C0220F0A95EAF72095D4
:100BA000242320930C0409C081E090E001C0880F49
:100BB0000A95EAF7842B80930C0441E050E0BE01D3
:100BC000C701DF91CF911F910F91FF90EF90DF90C0
:100BD000CF90BF900C946E03DF91CF911F910F9136
:100BE000FF90EF90DF90CF90BF9008958F929F92EB
:100BF000AF92BF92CF92DF92EF92FF920F931F932B
:100C0000CF93DF938C01B62ECC24CA94D12C96E0DE
:100C1000E92E0E94B803E09EF001E19EF00D112440
:100C2000882319F0EE57FC4F02C0EC5DFE4FD081D7
:100C300091808280C02F802F0E94A204A82E0E9443
:100C4000B80398013327E29EF001E39EF00D1124D2
:100C5000882319F0EE57FC4F02C0EC5DFE4FF38085
:100C6000FF1CFF24FF1C8C2F0E94C103882319F056
:100C7000AA2009F442C08FEFC816D10419F4BF109E
:100C800018C00FC0892D90E0C816D90611F482E66D
:100C900001C081E6282D30E0C216D30631F082363D
:100CA00051F1A11005C0D92D04C0A11002C025C06A
:100CB000D82DDD2311F1DF3F99F4CA3518F541E055
:100CC00061E08C2FDF91CF911F910F91FF90EF90FA
:100CD000DF90CF90BF90AF909F908F900C94620563
:100CE000CA3528F441E061E08C2F0E94620568015A
:100CF0000D2F10E08ECFAA20E1F2CA3518F441E0A2
:100D000060E0DFCFDF91CF911F910F91FF90EF90C7
:100D1000DF90CF90BF90AF909F908F900895CF932A
:100D2000DF93C0E08C2F0E94C103882369F08C2FD1
:100D30000E94A204D82F482F61E08C2F0E946205E8
:100D400041E04D2760E007C040E060E08C2F0E944A
:100D5000620540E061E08C2F0E946205CF5FCA35DA
:100D600009F7DF91CF9108950E940A0D1F920F920B
:100D70000FB60F9211242F933F938F939F93AF93AE
:100D8000BF938091E6039091E703A091E803B091AF
:100D9000E9033091E50323E0230F2D3720F401967A
:100DA000A11DB11D05C026E8230F0296A11DB11D8E
:100DB0002093E5038093E6039093E703A093E80371
:100DC000B093E9038091E1039091E203A091E303E2
:100DD000B091E4030196A11DB11D8093E1039093AE
:100DE000E203A093E303B093E403BF91AF919F911B
:100DF0008F913F912F910F900FBE0F901F901895DC
:100E00001F920F920FB60F9211242F933F934F937F
:100E10005F936F937F938F939F93AF93BF93EF9362
:100E2000FF9389E594E00E945C01FF91EF91BF91EF
:100E3000AF919F918F917F916F915F914F913F9172
:100E40002F910F900FBE0F901F9018951F920F9229
:100E50000FB60F9211242F938F939F93EF93FF93CD
:100E6000E0916904F0916A048081E0916F04F0914F
:100E7000700482FD12C09081809172048F5F8F7325
:100E800020917304821751F0E0917204F0E0E75A68
:100E9000FB4F958F8093720401C08081FF91EF9189
:100EA0009F918F912F910F900FBE0F901F901895CB
:100EB0001F920F920FB60F9211242F933F934F93CF
:100EC0005F936F937F938F939F93AF93BF93EF93B2
:100ED000FF938091B900887F803609F49CC068F543
:100EE000883209F45BC090F4803109F454C038F4BE
:100EF000882309F4F6C0883009F44DC0F6C0883163
:100F000009F44CC0803209F45DC0EFC0803409F4AC
:100F100068C048F4803309F455C0883309F0E5C04F
:100F200080933204D8C0803509F44FC0883509F465
:100F30005DC0883409F0D9C0D6C0883909F4C7C06B
:100F4000A8F4883709F467C038F4883609F463C018
:100F5000803709F460C0C9C0883809F4B8C0803946
:100F600009F45FC0803809F0C0C05BC0803B09F461
:100F700086C038F4803A09F466C0883A09F47FC024
:100F8000B4C0803C09F4A7C0883C09F4A4C0883BE5
:100F900009F48AC0AAC080910F0410C09091310456
:100FA00080913004981770F5E091310481E08E0F44
:100FB00080933104F0E0E05FFB4F80818093BB00C1
:100FC00085EC86C0809332048EC0E091310481E0CC
:100FD0008E0F809331048091BB00F0E0E05FFB4F07
:100FE000808390913104809130046EC0E09131048F
:100FF00081E08E0F809331048091BB00F0E0E05FD0
:10100000FB4F80838091330481116DC081E0809318
:101010000E0484EA61C083E0809334041092DC0300
:10102000CFCF8091DC03803208F051C0E091DC0327
:1010300081E08E0F8093DC038091BB00F0E0E454EC
:10104000FC4F8083BDCF85EC8093BC0010923404AC
:101050008091DC03803230F4E091DC03F0E0E45472
:10106000FC4F10826091DC0370E0E091DD03F091B1
:10107000DE038CEB93E009951092DC0336C084E02C
:10108000809334041092BB031092BA03E091DF0303
:10109000F091E00309958091BA03811105C081E0C8
:1010A0008093BA0310929A03E091BB0381E08E0F04
:1010B0008093BB03F0E0E656FC4F80818093BB0039
:1010C0009091BB038091BA03981708F479CF85E813
:1010D0008093BC000AC085EC8093BC00109234045D
:1010E00004C0109232040E94B402FF91EF91BF91AC
:1010F000AF919F918F917F916F915F914F913F91B0
:101100002F910F900FBE0F901F9018951F920F9266
:101110000FB60F9211242F933F934F935F936F93CA
:101120007F938F939F93AF93BF93EF93FF938091A0
:1011300098039091990390938500809384008DE0AB
:101140000E94200261E068278DE00E944902FF9121
:10115000EF91BF91AF919F918F917F916F915F912F
:101160004F913F912F910F900FBE0F901F901895A8
:1011700010925C0410925B0488EE93E0A0E0B0E073
:1011800080935D0490935E04A0935F04B093600429
:1011900022E633E030935A042093590425EC30E0E2
:1011A000309366042093650424EC30E030936804A7
:1011B0002093670420EC30E030936A0420936904A4
:1011C00021EC30E030936C0420936B0422EC30E08F
:1011D00030936E0420936D0426EC30E0309370045D
:1011E00020936F041092720410927304109274048E
:1011F000109275041092F9041092F8048093FA0486
:101200009093FB04A093FC04B093FD0484E793E067
:101210009093F7048093F604109203051092020550
:10122000109205051092040510920705109206050C
:1012300060E170E080E090E00E94440C009799F03B
:1012400090930305809302052FE030E0309305056D
:10125000209304052091060530910705232BC1F446
:10126000FC01108215C08091020590910305009742
:1012700011F00E94BB0B1092030510920205109210
:1012800007051092060510920505109204050895B1
:101290008FE090E0909307058093060568E873E07F
:1012A00080910205909103050C94180DCF93DF9364
:1012B000CDB7DEB760970FB6F894DEBF0FBECDBFD7
:1012C000789484B5826084BD84B5816084BD85B521
:1012D000826085BD85B5816085BD80916E0081602D
:1012E00080936E00109281008091810082608093D3
:1012F00081008091810081608093810080918000D5
:101300008160809380008091B10084608093B100FF
:101310008091B00081608093B00080917A008460F9
:1013200080937A0080917A00826080937A00809125
:101330007A00816080937A0080917A00806880933F
:101340007A001092C100E0916904F0916A0482E091
:101350008083E0916504F09166041082E091670457
:10136000F09168048FEC808310927104E0916D0419
:10137000F0916E0486E08083E0916B04F0916C0440
:10138000808180618083E0916B04F0916C048081A6
:1013900088608083E0916B04F0916C0480818068A8
:1013A0008083E0916B04F0916C0480818F7D808359
:1013B00061E08DE00E94780262E08CE00E94780299
:1013C0001092EB031092EA03109236041092580424
:1013D0001092340481E08093330410920E0461E093
:1013E00082E10E94490261E083E10E94490280910A
:1013F000B9008E7F8093B9008091B9008D7F809372
:10140000B90088E48093B80085E48093BC0083E150
:1014100091E09093E0038093DF0384E191E0909367
:10142000DE038093DD0300E010E0DD24DA94D09247
:101430000C04D0920D0442E050E060E070E0C8017E
:101440000E946E0310920C0410920D0442E0E42EF0
:10145000F12C42E050E0B701C8010E946E0382E027
:10146000E80EF11CE6E1EE16F10499F70F5F1F4F4D
:1014700007301105E1F60E94B803811119C08E01F1
:101480000F5F1F4F80E1F80111928A95E9F782E81A
:10149000E82E83E0F82E94E2C92E91E0D92E2EE9B1
:1014A000A22E25E0B22E412C512C3201439433C0A0
:1014B00012E061E0812F0E9478021F5F1830C9F7A7
:1014C000DECFF7018081882371F1F70183818F3F9F
:1014D000C9F0982F9F7792959F70F801E90FF11D41
:1014E000E90FF11D8F70B301A20104C0440F551F15
:1014F000661F771F8A95D2F780819181482B592BDF
:1015000051834083F6E0EF0EF11C86E0C80ED11C3B
:10151000AE14BF0441F00E94B8038111D2CFF6018E
:1015200080818111D3CFE12CF12CF8019081818150
:101530000E5F1F4F90930C0480930D0442E050E027
:1015400060E070E0C7010E946E0342E050E06CE092
:1015500070E0C7010E946E03FFEFEF1AFF0A88E0F8
:10156000E816F10411F70E949A030E949A030E9460
:101570008F060E94C904892BE1F7FF24F3940E948F
:10158000C9048C0197FF17C096FD12C0809110010D
:10159000882321F00E948F0610921001112761E02C
:1015A000C8010E94F60560E0C8010E94F60505C06A
:1015B0000E948F0602C0F09210010E94ED01DFCF61
:1015C00080910205909103050C94BB0B2F923F92E2
:1015D0004F925F926F927F928F929F92AF92BF9243
:1015E000CF92DF92EF92FF920F931F93CF93DF93EF
:1015F000CDB7DEB7CA1BDB0B0FB6F894DEBF0FBE4C
:10160000CDBF09942A88398848885F846E847D8498
:101610008C849B84AA84B984C884DF80EE80FD809A
:101620000C811B81AA81B981CE0FD11D0FB6F89410
:10163000DEBF0FBECDBFED010895EE0FFF1F059079
:10164000F491E02D09940F931F93CF93DF93823091
:10165000910510F482E090E0E0910A05F0910B050D
:1016600020E030E0A0E0B0E0309719F140815181F6
:101670000281138148175907C8F08417950769F448
:10168000109731F012960C93129713961C9327C063
:1016900000930A0510930B0522C02115310519F09E
:1016A0004217530718F49A01BD01EF01DF01F80159
:1016B000DBCF21153105F9F0281B390B243031051A
:1016C00080F48A819B816115710521F0FB01938370
:1016D000828304C090930B0580930A05FE01329625
:1016E00044C0FE01E20FF31F819391932250310910
:1016F000398328833AC02091080530910905232BAE
:1017000041F4209113013091140130930905209385
:10171000080520911101309112012115310541F484
:101720002DB73EB74091150150911601241B350B82
:10173000E0910805F0910905E217F307A0F42E1BCC
:101740003F0B2817390778F0AC014E5F5F4F241725
:10175000350748F04E0F5F1F509309054093080569
:101760008193919302C0E0E0F0E0CF01DF91CF914F
:101770001F910F910895CF93DF93009709F481C0D3
:10178000FC01329713821282A0910A05B0910B05D9
:10179000109781F420813181820F931F20910805D9
:1017A000309109052817390751F5F0930905E093A1
:1017B000080567C0ED0120E030E0CE17DF0740F4F8
:1017C0004A815B819E0141155105F1F0EA01F5CF97
:1017D000D383C28340815181840F951FC817D907D5
:1017E00059F488819981840F951F02969183808393
:1017F0008A819B81938382832115310529F4F0939B
:101800000B05E0930A053DC0E901FB83EA8349919A
:101810005991C40FD51FEC17FD0761F480819181A8
:10182000840F951F0296E9019983888382819381B1
:101830009B838A83E0E0F0E012968D919C91139750
:10184000009719F0FD01DC01F7CF8D919C91119764
:101850009D012E5F3F4F820F931F2091080530910D
:1018600009052817390769F4309729F410920B05F8
:1018700010920A0502C013821282B0930905A09348
:101880000805DF91CF910895A0E0B0E0EAE4FCE024
:101890000C94EA0AEC01009721F4CB010E94230B7F
:1018A000B4C0FC01E60FF71F9C0122503109E2177A
:1018B000F30708F4A8C0D9010D911C9111970617E0
:1018C0001707B0F00530110508F49BC0C801049754
:1018D0008617970708F495C002501109061B170BCD
:1018E000019311936D937C93CF010E94BB0B89C030
:1018F0005B01A01AB10A4C01800E911EA0910A054D
:10190000B0910B05612C712CE12CF12C109709F48E
:1019100046C08D919C911197A815B905B1F56C0140
:1019200042E0C40ED11CCA14DB0478F14C018A18C1
:101930009B08640142E0C40ED11C1296BC90129721
:101940001396AC91B5E0CB16D10440F0B282A383DC
:1019500091828082D9016D937C9309C00E5F1F4FE5
:10196000800F911FF90191838083EB2DFA2FE114F1
:10197000F10431F0D7011396FC93EE93129741C016
:10198000F0930B05E0930A053CC06816790608F44D
:101990003C017D0112960D90BC91A02DB7CF809196
:1019A00008059091090588169906E1F466167706F0
:1019B000C8F48091110190911201009741F48DB704
:1019C0009EB74091150150911601841B950BE817A5
:1019D000F907C8F4F0930905E0930805F90171834C
:1019E00060830FC0CB010E94230B7C01009759F04C
:1019F000A801BE010E940F0DCE010E94BB0BC701C2
:101A000004C0CE0102C080E090E0CDB7DEB7EEE0CA
:101A10000C94060B81E090E0F8940C941F0DFB01F0
:101A2000DC0102C001900D9241505040D8F708955A
:101A3000FB01DC0101900D920020E1F7089510E018
:101A4000C2E6D0E004C0FE010E941D0B2196C33601
:081A5000D107C9F7F894FFCF9C
:101A5800FFFFFFFFFFFFFFFFFFFFFFFFFFFFFFFF8E
:101A68000100000C0580000607292A2BFF0607083D
:101A780040434AFFFF2DFFFFFFFFFF2CFFFFFFFF43
:101A8800FF4CFFFFFFFFFF4BFFFFFFFFFF20FFFFA4
:101A9800FFFFFF33FFFFFFFFFF1BFFA528271C1ECB
:101AA800FFAA2926153D3E87707E4B0D3C08717DA7
:101AB8003C404106FFFF2B0D3A09247C16153A8954
:101AC80072730E090B857B740D3B0F0A7A750E1322
:101AD8001004FFFF0F11450BFFFF10124403FFFF17
:101AE8001142430CFFFF0F461402FFFF1348470D36
:101AF800FFFF0C083F817976170C348E787716260D
:101B080018007860192517806F6E18281A0F6F6DE6
:101B18001B39198F61621AFF1C176163FF1E1B971F
:101B28006C6B1E4A4918FFFF1F1C1D16646A1E3283
:101B380033996569FF3223152168222F319566672D
:101B48003924219A5F50312030945E512E22251B72
:101B58004D521835249B5D5C36172793535B3B2603
:101B6800371C305A3819379C545534FF2C92595623
:101B780035FF2D9D58574C0BFF914F40FF29FFFF14
:101B88004EFFFF2AFFFF41FFFF24FFFF4DFFFF210C
:101B9800FFFF42FFFF23FFFF4CFF2321FFFF43FF0F
:101BA800201FFFFF4BFFFF1FFFFF44FF2916FFFF0A
:101BB8004AFF2A25FFFF45FF26FFFFFF49FF272889
:101BC800FFFF46FF28FFFFFF48FF221AFFFF47FFDE
:101BD8000B0CFFFF3FFF0E27FFFF30FF090AFFFF37
:101BE8003EFFFF08FFFF31FFFF08FFFF3DFFFF1526
:101BF800FFFF32FF0AFFFFFF3CFF0AFFFFFF33FF33
:101C080012FFFFFF3BFF12FFFFFF34FF11FFFFFF33
:101C18003AFF10FFFFFF35FF13FFFFFF39FF14FFE7
:101C2800FFFF36FF14FFFFFF38FF1DFFFFFF37FFE1
:101C38001DFFFFFF2FFFFF09FFFF20FFFF2BFFFF07
:101C48002EFF00000000000000000000000000005F
:101C5800000000000000000000000000000000007C
:101C6800000000000000000000000000000000006C
:101C7800000000000000000000000000000000005C
:101C8800000000000000000000000000000000004C
:101C9800000000000000000000000000000000003C
:101CA800000000000000000000000000000000002C
:101CB80000007E01E9001501CB014601240138012D
:101CC800000000003F0312039703E6020A03F6022E
:101CD800E702000000000000312E302E3720313698
:081CE8004A756C3230313900FD
:107E0000112484B714BE81FFF0D085E080938100F7
:107E100082E08093C00088E18093C10086E0809377
:107E2000C20080E18093C4008EE0C9D0259A86E02C
:107E300020E33CEF91E0309385002093840096BBD3
:107E4000B09BFECF1D9AA8958150A9F7CC24DD24C4
:107E500088248394B5E0AB2EA1E19A2EF3E0BF2EE7
:107E6000A2D0813461F49FD0082FAFD0023811F036
:107E7000013811F484E001C083E08DD089C08234E0
:107E800011F484E103C0853419F485E0A6D080C0E4
:107E9000853579F488D0E82EFF2485D0082F10E0AE
:107EA000102F00270E291F29000F111F8ED06801E7
:107EB0006FC0863521F484E090D080E0DECF843638
:107EC00009F040C070D06FD0082F6DD080E0C81688
:107ED00080E7D80618F4F601B7BEE895C0E0D1E017
:107EE00062D089930C17E1F7F0E0CF16F0E7DF06D8
:107EF00018F0F601B7BEE89568D007B600FCFDCFD4
:107F0000A601A0E0B1E02C9130E011968C91119780
:107F100090E0982F8827822B932B1296FA010C0160
:107F200087BEE89511244E5F5F4FF1E0A038BF0790
:107F300051F7F601A7BEE89507B600FCFDCF97BE46
:107F4000E89526C08437B1F42ED02DD0F82E2BD052
:107F50003CD0F601EF2C8F010F5F1F4F84911BD097
:107F6000EA94F801C1F70894C11CD11CFA94CF0C13
:107F7000D11C0EC0853739F428D08EE10CD085E9AC
:107F80000AD08FE07ACF813511F488E018D01DD067
:107F900080E101D065CF982F8091C00085FFFCCF94
:107FA0009093C60008958091C00087FFFCCF809118
:107FB000C00084FD01C0A8958091C6000895E0E648
:107FC000F0E098E1908380830895EDDF803219F02E
:107FD00088E0F5DFFFCF84E1DECF1F93182FE3DFCA
:107FE0001150E9F7F2DF1F91089580E0E8DFEE27F6
:047FF000FF270994CA
:027FFE00040479
:0400000300007E007B
:00000001FF